:10000000981300203D150000391500003915000037
:1000100000000000000000000000000000000000E0
:100020000000000000000000000000003915000082
:100030000000000000000000391500003915000024
:100040003915000039150000391500003915000078
:100050003915000039150000391500003915000068
:100060003915000039150000391500003915000058
:100070003915000039150000391500003915000048
:100080003915000039150000391500003915000038
:100090003915000039150000391500003915000028
:1000A0003915000039150000391500003915000018
:1000B00008B5064B064803331B1A062B00D808BDAB
:1000C000044B002BFBD09847F9E7C046D41700003B
:1000D000D41700000000000008B50748074B1B1AA2
:1000E0009B10DA0FD318591000D108BD044A002A1A
:1000F000FBD09047F9E7C046D4170000D4170000A2
:100100000000000010B5074C2378002B09D1FFF741
:10011000CFFF054B002B02D0044800E000BF0123B5
:10012000237010BD5800002000000000D41700000C
:1001300008B5094B002B03D00848094900E000BF6F
:1001400008480368002B03D0074B002B00D09847CA
:10015000FFF7C2FF08BDC04600000000D417000032
:100160005C000020D41700000000000070B51B4E9A
:10017000141C33780568002B12D1194B194A1A64E4
:100180005A6C920B92035A64586C174A02405A6494
:10019000A2235B00EA5C40200243EA54012333704F
:1001A0002B1CFC339B6CDB01DB0F14D00C4B5A6C0B
:1001B0009204920CA24202D25C6CA404A40C081C0F
:1001C000221C0A4B074998474823FF330122EA546F
:1001D0000023337000E01C1C201C70BD9000002028
:1001E0009400002064010020FF3F00F0F1150000A2
:1001F000F7B5141C00681F4A5E011D1C019093197D
:100200005869271C4000400F03301033C74006D008
:100210000F1C8022596812060A435A6009E02F1CFD
:100220007B1E9F41144BBF01FF18381C221C134B2F
:100230009847104BA1049A191761131C5269890C35
:10024000920B92030A435A6159690D4A08350A40D4
:100250005A61019F0223BE19FF366D0133727D1969
:100260006A7980235B4213436B71337A9A07FCD51A
:10027000201CFEBD94000020A4010020F115000008
:10028000FF3F00F070B53B4B2021DA690F240A4391
:10029000DA61394B01211878384A08431870D06B5D
:1002A000374BC0B2A0431870D56B0620EDB20543A2
:1002B0001D70344D2E780E432E70D56B2C401C7063
:1002C000D26B6024D2B222431A702F4B3F245A883B
:1002D000A2431043588018688222000CD2010243C6
:1002E0005A802A4B1A78114319701A68D103FCD42A
:1002F00027480268510B1F221140914200D105216D
:1003000011408C011D8D2349294021431985046822
:10031000A10C0A401F2A00D11D221C8D1F210A405A
:100320008C4322431A8502680721D20D0A408A4273
:1003300000D103220A40188D1103174A02400A43D4
:100340001A8519787F220A401A701A7804211348F6
:100350000A431A7058621A890C218A431A819A68D2
:10036000012192B28A431A81002180220C4B9847C6
:1003700070BDC046000400405844004100440041A4
:100380003C44004159440041000C004000500041F1
:10039000246080003FF8FFFFFF8FFFFF94000020E4
:1003A000751600000F4B2021DA693F208A43DA617D
:1003B0000D4B01221978914319700C4B1978914318
:1003C00019700B4B598881430620014359801968E5
:1003D000090C5980074B19780A431A701A68D1031F
:1003E000FCD4704700040040584400415944004187
:1003F000000C004000500041002303714371064B84
:1004000001608360054B0222C360054B03610B78DA
:1004100013430B707047C04651040000F101000007
:100420006D010000094B5A69920B92035A61031C3B
:10043000FF3302221A729979802252420A439A713A
:10044000031CFC339B689A01FAD570479400002086
:10045000F7B50468051CE3690820034028D0802311
:100460000821A1831122A372FF3462704022A2717D
:100470006371C54BC5485E68C021064089050E43BF
:100480005E605E69304001435961C1491960C149EC
:1004900019615868C04901408020800201435960B9
:1004A0005968890B89035960002362712B71CFE170
:1004B000221CFC329268D60000D4C9E1B44F201C43
:1004C000FF3010220272B5493A78B54E0A707A7838
:1004D000B4463270B34EBA78F97832803288090265
:1004E0000A433280B0493A7901900A800A887979C2
:1004F000AD4809020A430280AC48BA79F979028012
:10050000028809020A430199028040224A71624628
:100510001178A24A090212781143A54A9446A24AC8
:10052000614500D18DE11CDC80204000814200D17A
:10053000EDE009DC812900D199E0822900D19BE01E
:10054000802900D081E192E081235B00994200D1B3
:10055000E1E000DA75E1C0239B00994200D15EE141
:1005600073E188200001814200D17CE00CDCA023F3
:10057000DB0099426DD0D023DB0099424AD08D4BED
:10058000994200D061E19BE08B4B994200D158E148
:1005900034DC90231B01994200D056E13388201CA3
:1005A0002B71864B9847A02303225B00E254764BC5
:1005B000764A586CC021104089050843586446208B
:1005C000FF304026265490203026400040371F64DC
:1005D0002654586B40261040014392205963400036
:1005E0008021215476481863B02040002654586F6B
:1005F00002405A67B2235B00E15429E1714B9942F2
:1006000000D110E1704B994200D01EE1654E338855
:100610006B7116E1328880235B009A4209D16349ED
:1006200012220B88934201D80A8892B2281C67498B
:1006300003E1328880239B009A4268D15B4A138889
:100640004322934202D8594B1A8892B2281C60491F
:10065000F3E05A4B201C9847328880235B421343B7
:10066000DBB2A372F4E0291D281C0122E6E05949FF
:10067000281C0B800222E1E056490B801088502391
:100680001840554B187016880F2030401080108885
:10069000032800D9D9E01B78002B06D01388083333
:1006A0005B01E41863689B0205E0138808335B0173
:1006B000E4186368DB02DB0F0B80281C0222BCE01D
:1006C00011887F239943444BC9B2197010880F21B8
:1006D000014011803188002915D11188002912D0DC
:1006E000118803290FD81B78002B05D013882022EE
:1006F00008335B01E31804E01388102208335B0120
:10070000E3185A719DE0019A20239371A0E0019EA5
:100710002023B3719CE011887F2399432E4BC9B2EB
:10072000197010880F21014011803188002900D0F4
:1007300075E01188002900D171E0118803296ED875
:100740001B78002B4AD0138808335B01E3185B68E1
:10075000980200D475E01388202108335B01E31868
:100760001971138808335B01E3185B68590068D579
:100770001388402108335B01E318D97113880222E2
:1007800008335B01E31848E094000020FFFFFF8F6F
:1007900024010020A4010020FF3F00F014010020EC
:1007A000180100207400002078000020760000204E
:1007B00001030000020300002120000025040000C6
:1007C000E4010020A12100002122000030170000D8
:1007D0000400002016010020910000201388083337
:1007E0005B01E3185B68DE022BD513881021083308
:1007F0005B01E3181971138808335B01E3185B6828
:1008000098001ED51388202108335B01E318D971A5
:100810001388012208335B01E3181A7111E0019972
:1008200020238B7114E00B4A13880822934202D8CC
:10083000084B1A8892B20849281C0023074CA0478D
:1008400006E0201C064B984702E0019820238371A4
:100850002879FEBD7600002048000020F10100004C
:100860002504000010B5054B054C2360054B984747
:10087000201C2168044B9847201C10BD00500041EB
:100880007C00002085020000F903000008B5014B40
:10089000984708BDA503000013B50122019001A9E6
:1008A000131C024C0248A047012016BDF1010000B4
:1008B0007C00002013B56C460734211C0122024B3A
:1008C00002489847207816BD6D0100007C0000208A
:1008D00010B5074C074B201C9847031C002083428F
:1008E00004D02368FC33986CC001C00F10BDC04613
:1008F0007C0000205104000038B50C1C031C191C9E
:10090000034D221C01230348A847201C38BDC046C4
:10091000F10100007C00002070B5084C084B061C5B
:10092000201C0D1C98470023984205D0054B201C25
:10093000311C2A1C9847031C181C70BD7C00002029
:10094000510400006D010000F8B51A4E051C1A4B49
:10095000301C0C1C98470022904228D0174933685D
:100960000878904206D04620FF301E5C40273E4368
:100970001E540A70124AA0041564516C0009890BB8
:1009800089035164556C0F49294001435164A222E7
:100990005200995C4020014399541A1CFC32926C1D
:1009A000D101FAD54822FF3201219954221C101C92
:1009B000F8BDC0467C0000205104000090000020DB
:1009C00094000020FF3F00F07FB50A4B694670CBD2
:1009D00070C11B686A460B60002399005158884219
:1009E00004D00133042BF8D1002000E0181C04B01F
:1009F00070BDC0464417000010B5C3699C07FCD405
:100A000003680224A3430360C369DC07FCD40368C2
:100A10000124234303600368DC07FCD4C369DC07BB
:100A2000FCD4C3699C07F9D4084B1A430260C3691C
:100A30005A07FCD4C0239B0243608181C3699C0791
:100A4000FCD4036802221343036010BD040000407D
:100A5000C3699A07FCD40368022293430360C36905
:100A6000DA07FCD4036801221343036070478369EB
:100A7000DA07FCD50185704783695A07FCD583697D
:100A8000DA0305D483699A0302D483695A0302D531
:100A9000024B01221A70806AC0B27047190100200F
:100AA00030B52B4B1E215A680F208A4302210A437E
:100AB00028495A600A6A284B13400B62274B5A6830
:100AC00082435A601A6825481404FBD44468832280
:100AD0005202224342601A681504FCD4204A10686E
:100AE000800E3F2800D11F201E4A1F4C126892051D
:100AF000920DA24200D11D4A800210438A8C8024AC
:100B0000A2438A84CC68134AE506FBD51849D16212
:100B100091214900906291845A883F218A435A80EA
:100B200019688022090CD2010A435A805A680F21A1
:100B30008A4301210A435A601A6808491004FBD409
:100B400048680C4A02434A601A681104FCD430BD5C
:100B50000040004100080040FFFCFFFF000C004087
:100B60002460800028608000FF030000FF01000077
:100B700080BB000000070100F8B54A4B00221C684A
:100B800049491A60494B8022120102209A6008707C
:100B90005A61802252029A609A61454B9847454BB0
:100BA00001221A70BFF35F8F62B6434B9847434BE5
:100BB00098478022802392019B051A60404B414A4E
:100BC0001B68071C1360394E3F4A591C04D0136838
:100BD0009C4203D03D4C02E01C1C00E03C4C1368DE
:100BE00030490B60002C29D0381CBA689047002887
:100BF00006D0384B00209847374B01221A701DE071
:100C0000364B9847002803D00120324B984715E017
:100C100031698022254B5202914204D1304A9542DB
:100C200006DD596103E02F498D4201DD9A61051C03
:100C3000E3171B1BDB0FE41A0135D3E71949002327
:100C40000B6080277F02002C17D0274B9847326912
:100C5000164BBA4204D125498D4206DD5A6103E0A4
:100C6000234A954201DD9F610025002C03DD013CF4
:100C7000002800D0154C0135E3E777611D4B776004
:100C800098471D4B984780239B011B6883F3088876
:100C90001A4B802292019A600A4A13681847002072
:100CA000F8BDC046000800204B440041004400410C
:100CB000A10A000054000020F510000065080000A3
:100CC000042000001C01002050000020F049020018
:100CD00000093D00010D000020010020211200004C
:100CE000B80B000030750000E10D00008813000013
:100CF00050C30000C51100008D08000000ED00E0A9
:100D0000094B00221A60094B7A221A70012805D17A
:100D1000074B084A1A60084B187004E0002802D1FB
:100D2000064A034B1A607047780200203002002008
:100D30007C020020701700002201002054170000E0
:100D400030B51A4B85B01B78002B29D0042901D16E
:100D5000026804E0022901D1028800E0027849001B
:100D600004A843180B3B5C1AA3420BD00F20104081
:100D7000092802D83025284300E0373018701209BE
:100D8000013BF1E701A830230370782343700A2266
:100D900043189A700D22DA70054B04311B6801E08C
:100DA000034B1B68DB68984705B030BD210100206C
:100DB0007C02002072B6BFF35F8F074B00221A70CF
:100DC000EFF30883054A1360036883F30888C0467D
:100DD000436818477047C046540000208002002036
:100DE000F7B5AB4CAB4D236840211B69281C9847D5
:100DF000A94BAA4AAA4E002110601D6031601F1C39
:100E0000A64AA74D10682B68834200D33FE1A24B4E
:100E10001B681878FF2800D134E18021A14A4902DB
:100E2000232800D002E1A04851610378002B04D0B0
:100E300023689E48DB68022198479D4B1B78532B03
:100E400033D196492A68086890421AD9994B396873
:100E50001B68013201312A603960821A9A4200D936
:100E60001A1C954B954D1868954B2A6098472B682E
:100E700030681A183260884A1068C1181160914AA7
:100E8000137033688B4A013B33603B681168013B48
:100E90003B608C4B1B788B4205D222688648C91A6E
:100EA000006892699047C046B0E0522B06D1824A52
:100EB000236810687F4A5B691168A6E04F2B05D153
:100EC0007D4B7C4A1B6812681A709FE0482B05D145
:100ED000794B784A1B6812681A8097E0572B05D126
:100EE000754B744A1B6812681A608FE06F2B03D130
:100EF000714B0121186807E0682B08D16E4B6D48D3
:100F00001B6802211B8803606F4B98477EE0772B9C
:100F100006D1694B67481B6804211B680360F3E72F
:100F2000472B16D1634B1868684B9847684B1B6872
:100F300083F30888674B01221A70BFF35F8F62B694
:100F4000654B1B78002B61D0236806201B689847EF
:100F50005CE0542B03D1544901230B7051E04E2B1C
:100F60000CD1514A1378002B04D123684F48DB6819
:100F7000022198474C480023037047E0562B45D187
:100F800023680121DB685548984723680821DB68FE
:100F90005348984723680121DB68524898473E49E7
:100FA0005148002308602B600A1C1368591C11600B
:100FB0001B780193002B06D0394B39491B680093ED
:100FC00001330B60F1E723682968DB6898472368E1
:100FD0004448DB6801219847019A44482E4B2A6017
:100FE00018602D4A1368591C11601B78002B04D01F
:100FF0002B4B1A6801321A60F3E723683168DB680B
:10100000984723682948DB6802219847284B7A22B1
:101010001A70284B00221A60234B1B7893422DD064
:1010200023680121DB683248984727E091611A78EC
:10103000204B111C3039C8B2092804D818680201A5
:10104000114319601AE0111C4139C9B2052901D8B0
:10105000373A05E0111C6139C9B2052904D8573A5D
:10106000186801010A4308E02C2A03D1124A1968C2
:10107000116001E00E490A7000221A60064B1A68DE
:1010800001321A60064B1A6801321A60B8E6FEBDDA
:101090007C020020380200202C02002028020020C0
:1010A0003402002000440041210100208C17000080
:1010B00030020020840200207802002088020020F4
:1010C000F115000024020020410D0000B50D0000C4
:1010D0008002002054000020220100208F17000011
:1010E000AA17000091170000931700009F17000037
:1010F000A817000038B5264B01241A1C5632117867
:101100001B3A2143D176986B0F21000E8843107053
:10111000986B0225000E28431070181C5730057874
:1011200025430570986B1B4D000E014011709B6BA1
:1011300020211B0E0B431370281C174B9847174B8D
:10114000811C1A6A8C4014431C62154B3F2258883C
:101150001231114090430843588019688022090CCD
:10116000D2010A435A808022281C0E4952030E4B9A
:1011700098470E4B00241C700D4B1C700D4B1C70BF
:101180000D4B1C700D4B1C700D4B1C7038BDC046B8
:101190000044004100140042C9090000000400405E
:1011A000000C004004C50000F90900008C0200207A
:1011B000130300208D020020900200201403002061
:1011C0001103002008B50248024B984708BDC046ED
:1011D00000140042510A000008B5C1B2024B034896
:1011E0009847012008BDC0466F0A00000014004265
:1011F000024B98694007C00F7047C0460014004278
:1012000008B5044B98470028FBD00348034B984788
:1012100008BDC046F111000000140042790A000028
:1012200008B5064B98470023984205D0044B9847D1
:10123000031C233B5A425341181C08BDF111000006
:101240000112000070B5041C0D1C4618B44204D0F5
:101250002078034B98470134F8E7281C70BDC0463E
:10126000D911000010B5034B041C984720700120D1
:1012700010BDC0460112000000024840082301B220
:10128000420090B2002902DA0348424090B2013B8A
:101290009BB2002BF3D1704721100000F7B500245A
:1012A000051C0F1C261CBC4220D0124B9847124B29
:1012B000C0B21B780190002B1AD1311C0F4B9847FC
:1012C0000F4B061C1A88002A04D10E4A11782A1CDA
:1012D000002907D001996A1C2970802F02D1198832
:1012E000013919800134A4B2151CDCE7301C00E080
:1012F0000120FEBD01120000110300207912000040
:101300008E02002012030020F0B585B003AC174D0B
:10131000061C0191201C0221A847301C8021A847EF
:10132000134D071C2B78002B19D1124EB047000229
:1013300080B20090B04700992B78081880B2012B3A
:101340000DD00D4BB84208D1227801998A4204D1C0
:10135000D2436178D2B2914203D01820984700203E
:1013600002E006209847012005B0F0BD9D12000064
:101370001103002001120000D9110000F0B53B4E0E
:1013800085B0002203900C1C3270394B914201D180
:10139000012201E037490C801A707F231C4201D0E2
:1013A00080349C43344FB8473378C0B2002B08D008
:1013B00000253570B8473378C0B2AB4201D03570E4
:1013C00051E0432803D071284CD01528EAD10123DD
:1013D00001932A4D0120A8470198A84701990026AA
:1013E000C843C0B2A847039B80250293214A1388B3
:1013F000002B04D11E491F1C0978002905D0029931
:10140000013B0F78013113800291381C1B4B984728
:10141000381C311C1A4B9847013D061C174F002DF4
:10142000E4D1000AC0B2B847F0B2B847124EB04794
:101430000E4B1A78002A01D01D7014E0C0B20628A5
:1014400007D1019B03990133DBB280310193803CCA
:101450000391002CBDD10420B847B047044B0125AF
:101460001C7000E00025281C05B0F0BD1103002011
:10147000120300208E02002001120000D91100008A
:1014800079120000F7B5244A002301901370161C4E
:10149000994201D1012301E0204A1180204A6424AD
:1014A000137043201F4FB8471F4D204B984700280B
:1014B00003D1002D03D0013DF7E7002D03D1013CFE
:1014C000002CEED126E00125194B98473478002CEA
:1014D00001D000240EE0C0B2012804D0042815D1A8
:1014E0000620B84712E0134B0198291C984733781F
:1014F000002B01D034700DE0012805D1019B01358E
:101500008033EDB20193DFE70028DDD1044A0023E8
:1015100013700124201CFEBD110300208E02002048
:1015200012030020D911000000350C00F111000059
:101530000112000009130000FEE7000011481249E3
:1015400010B5884201D0002301E0104B07E0104C99
:10155000CA18A242F9D2C45804331460F7E70D4AFE
:10156000191D043B934203D200221A600B1CF6E7BC
:10157000094A0A4BFF218A439A60094B9847094B55
:101580009847FEE7D4170000040000205C0000200C
:1015900058000020980300200000000000ED00E04B
:1015A000A9150000790B000070B50D4E0D4D0024FB
:1015B000AD1BAD1005D0A300F35801349847A542E8
:1015C000F9D100F0F7F8084E084D0024AD1BAD101E
:1015D00005D0A300F35801349847A542F9D170BD56
:1015E000C0170000C0170000C0170000C41700009B
:1015F000F0B50F2A35D9031C0B439C0735D1161CB7
:10160000103E36093501451910350C1C031C27689E
:101610001F6067685F60A7689F60E7681034DF60DD
:101620001033AB42F3D1731C1B01C518C9180F232B
:101630001340032B1BD91C1FA4080134A400002352
:10164000CE58EE500433A342FAD1ED18C918032343
:101650001A4005D00023CC5CEC5401339342FAD1FC
:10166000F0BD051C002AF5D1FAE7051CF2E71A1CAB
:10167000F8E7C046F0B54F464646C0B483B083078E
:1016800052D0541E002A4AD0CEB2031C032503E0D8
:10169000621E002C43D0141C01335A1E16702B42BC
:1016A000F6D1032C33D9FF250D402A0215432A0415
:1016B00015430F2C1AD9271C103F3F09B9463F018B
:1016C000B8461027FF18BC4646461A1C66441560EB
:1016D00055609560D5601032B242F8D14F4601375F
:1016E0003F010F22DB191440032C10D9271F1E1DA8
:1016F000BF080196BE00B446019E1A1C664420C273
:10170000B242FCD10137BF000322DB191440002C88
:1017100005D0C9B21C1919700133A342FBD103B023
:101720000CBC90469946F0BD031C141CB9E7C0469A
:101730001201100102000040EB03246110010000BF
:101740000001000000080042000C004200100042AE
:101750000014004299080000B5080000D1080000FC
:10176000F908000019090000F90800004909000003
:10177000D911000001120000F11100004512000013
:10178000651200007D130000851400000A0D00762C
:101790000020005365702031302032303135003167
:1017A000363A31333A3532003E00312E3120574936
:1017B0004E4F0000F8B5C046F8BC08BC9E467047C6
:1017C00031010000F8B5C046F8BC08BC9E46704721
:0417D000050100000F
:1017D40009024300020100C00009040000010202E2
:1017E4000000052400100104240200052406000161
:1017F4000524010001070583030800FF0904010013
:10180400020A0000000705810240000007050202E9
:101814004000000000E10000000008007700000024
:0418240001000000BF
:00000001FF
